{
  "_format": "hh-sol-artifact-1",
  "contractName": "ArcadeLand",
  "sourceName": "contracts/arcadeLand.sol",
  "abi": [
    {
      "inputs": [
        {
          "internalType": "uint256",
          "name": "maxSupply",
          "type": "uint256"
        },
        {
          "internalType": "uint256",
          "name": "blockPrice",
          "type": "uint256"
        },
        {
          "internalType": "uint256",
          "name": "MintPrice",
          "type": "uint256"
        }
      ],
      "stateMutability": "nonpayable",
      "type": "constructor"
    },
    {
      "anonymous": false,
      "inputs": [
        {
          "indexed": true,
          "internalType": "address",
          "name": "owner",
          "type": "address"
        },
        {
          "indexed": true,
          "internalType": "address",
          "name": "approved",
          "type": "address"
        },
        {
          "indexed": true,
          "internalType": "uint256",
          "name": "tokenId",
          "type": "uint256"
        }
      ],
      "name": "Approval",
      "type": "event"
    },
    {
      "anonymous": false,
      "inputs": [
        {
          "indexed": true,
          "internalType": "address",
          "name": "owner",
          "type": "address"
        },
        {
          "indexed": true,
          "internalType": "address",
          "name": "operator",
          "type": "address"
        },
        {
          "indexed": false,
          "internalType": "bool",
          "name": "approved",
          "type": "bool"
        }
      ],
      "name": "ApprovalForAll",
      "type": "event"
    },
    {
      "anonymous": false,
      "inputs": [
        {
          "indexed": true,
          "internalType": "address",
          "name": "previousOwner",
          "type": "address"
        },
        {
          "indexed": true,
          "internalType": "address",
          "name": "newOwner",
          "type": "address"
        }
      ],
      "name": "OwnershipTransferred",
      "type": "event"
    },
    {
      "anonymous": false,
      "inputs": [
        {
          "indexed": true,
          "internalType": "address",
          "name": "from",
          "type": "address"
        },
        {
          "indexed": true,
          "internalType": "address",
          "name": "to",
          "type": "address"
        },
        {
          "indexed": true,
          "internalType": "uint256",
          "name": "tokenId",
          "type": "uint256"
        }
      ],
      "name": "Transfer",
      "type": "event"
    },
    {
      "inputs": [],
      "name": "MAP_HEIGHT",
      "outputs": [
        {
          "internalType": "uint256",
          "name": "",
          "type": "uint256"
        }
      ],
      "stateMutability": "view",
      "type": "function"
    },
    {
      "inputs": [],
      "name": "NAME",
      "outputs": [
        {
          "internalType": "string",
          "name": "",
          "type": "string"
        }
      ],
      "stateMutability": "view",
      "type": "function"
    },
    {
      "inputs": [],
      "name": "SYMBOL",
      "outputs": [
        {
          "internalType": "string",
          "name": "",
          "type": "string"
        }
      ],
      "stateMutability": "view",
      "type": "function"
    },
    {
      "inputs": [
        {
          "internalType": "address",
          "name": "to",
          "type": "address"
        },
        {
          "internalType": "uint256",
          "name": "tokenId",
          "type": "uint256"
        }
      ],
      "name": "approve",
      "outputs": [],
      "stateMutability": "nonpayable",
      "type": "function"
    },
    {
      "inputs": [
        {
          "internalType": "address",
          "name": "owner",
          "type": "address"
        }
      ],
      "name": "balanceOf",
      "outputs": [
        {
          "internalType": "uint256",
          "name": "",
          "type": "uint256"
        }
      ],
      "stateMutability": "view",
      "type": "function"
    },
    {
      "inputs": [],
      "name": "baseMintPrice",
      "outputs": [
        {
          "internalType": "uint256",
          "name": "",
          "type": "uint256"
        }
      ],
      "stateMutability": "view",
      "type": "function"
    },
    {
      "inputs": [
        {
          "internalType": "uint256",
          "name": "tokenId",
          "type": "uint256"
        }
      ],
      "name": "getApproved",
      "outputs": [
        {
          "internalType": "address",
          "name": "",
          "type": "address"
        }
      ],
      "stateMutability": "view",
      "type": "function"
    },
    {
      "inputs": [
        {
          "internalType": "address",
          "name": "owner",
          "type": "address"
        },
        {
          "internalType": "address",
          "name": "operator",
          "type": "address"
        }
      ],
      "name": "isApprovedForAll",
      "outputs": [
        {
          "internalType": "bool",
          "name": "",
          "type": "bool"
        }
      ],
      "stateMutability": "view",
      "type": "function"
    },
    {
      "inputs": [
        {
          "internalType": "uint256",
          "name": "",
          "type": "uint256"
        }
      ],
      "name": "lands",
      "outputs": [
        {
          "internalType": "address",
          "name": "",
          "type": "address"
        }
      ],
      "stateMutability": "view",
      "type": "function"
    },
    {
      "inputs": [
        {
          "internalType": "string",
          "name": "_map",
          "type": "string"
        }
      ],
      "name": "mint",
      "outputs": [
        {
          "internalType": "uint256",
          "name": "",
          "type": "uint256"
        }
      ],
      "stateMutability": "payable",
      "type": "function"
    },
    {
      "inputs": [],
      "name": "name",
      "outputs": [
        {
          "internalType": "string",
          "name": "",
          "type": "string"
        }
      ],
      "stateMutability": "view",
      "type": "function"
    },
    {
      "inputs": [],
      "name": "owner",
      "outputs": [
        {
          "internalType": "address",
          "name": "",
          "type": "address"
        }
      ],
      "stateMutability": "view",
      "type": "function"
    },
    {
      "inputs": [
        {
          "internalType": "uint256",
          "name": "tokenId",
          "type": "uint256"
        }
      ],
      "name": "ownerOf",
      "outputs": [
        {
          "internalType": "address",
          "name": "",
          "type": "address"
        }
      ],
      "stateMutability": "view",
      "type": "function"
    },
    {
      "inputs": [],
      "name": "renounceOwnership",
      "outputs": [],
      "stateMutability": "nonpayable",
      "type": "function"
    },
    {
      "inputs": [
        {
          "internalType": "address",
          "name": "from",
          "type": "address"
        },
        {
          "internalType": "address",
          "name": "to",
          "type": "address"
        },
        {
          "internalType": "uint256",
          "name": "tokenId",
          "type": "uint256"
        }
      ],
      "name": "safeTransferFrom",
      "outputs": [],
      "stateMutability": "nonpayable",
      "type": "function"
    },
    {
      "inputs": [
        {
          "internalType": "address",
          "name": "from",
          "type": "address"
        },
        {
          "internalType": "address",
          "name": "to",
          "type": "address"
        },
        {
          "internalType": "uint256",
          "name": "tokenId",
          "type": "uint256"
        },
        {
          "internalType": "bytes",
          "name": "_data",
          "type": "bytes"
        }
      ],
      "name": "safeTransferFrom",
      "outputs": [],
      "stateMutability": "nonpayable",
      "type": "function"
    },
    {
      "inputs": [
        {
          "internalType": "address",
          "name": "operator",
          "type": "address"
        },
        {
          "internalType": "bool",
          "name": "approved",
          "type": "bool"
        }
      ],
      "name": "setApprovalForAll",
      "outputs": [],
      "stateMutability": "nonpayable",
      "type": "function"
    },
    {
      "inputs": [
        {
          "internalType": "bytes4",
          "name": "interfaceId",
          "type": "bytes4"
        }
      ],
      "name": "supportsInterface",
      "outputs": [
        {
          "internalType": "bool",
          "name": "",
          "type": "bool"
        }
      ],
      "stateMutability": "view",
      "type": "function"
    },
    {
      "inputs": [],
      "name": "symbol",
      "outputs": [
        {
          "internalType": "string",
          "name": "",
          "type": "string"
        }
      ],
      "stateMutability": "view",
      "type": "function"
    },
    {
      "inputs": [
        {
          "internalType": "uint256",
          "name": "index",
          "type": "uint256"
        }
      ],
      "name": "tokenByIndex",
      "outputs": [
        {
          "internalType": "uint256",
          "name": "",
          "type": "uint256"
        }
      ],
      "stateMutability": "view",
      "type": "function"
    },
    {
      "inputs": [
        {
          "internalType": "address",
          "name": "owner",
          "type": "address"
        },
        {
          "internalType": "uint256",
          "name": "index",
          "type": "uint256"
        }
      ],
      "name": "tokenOfOwnerByIndex",
      "outputs": [
        {
          "internalType": "uint256",
          "name": "",
          "type": "uint256"
        }
      ],
      "stateMutability": "view",
      "type": "function"
    },
    {
      "inputs": [
        {
          "internalType": "uint256",
          "name": "tokenId",
          "type": "uint256"
        }
      ],
      "name": "tokenURI",
      "outputs": [
        {
          "internalType": "string",
          "name": "",
          "type": "string"
        }
      ],
      "stateMutability": "view",
      "type": "function"
    },
    {
      "inputs": [],
      "name": "totalSupply",
      "outputs": [
        {
          "internalType": "uint256",
          "name": "",
          "type": "uint256"
        }
      ],
      "stateMutability": "view",
      "type": "function"
    },
    {
      "inputs": [
        {
          "internalType": "address",
          "name": "from",
          "type": "address"
        },
        {
          "internalType": "address",
          "name": "to",
          "type": "address"
        },
        {
          "internalType": "uint256",
          "name": "tokenId",
          "type": "uint256"
        }
      ],
      "name": "transferFrom",
      "outputs": [],
      "stateMutability": "nonpayable",
      "type": "function"
    },
    {
      "inputs": [
        {
          "internalType": "address",
          "name": "newOwner",
          "type": "address"
        }
      ],
      "name": "transferOwnership",
      "outputs": [],
      "stateMutability": "nonpayable",
      "type": "function"
    }
  ],
  "bytecode": "0x60a06040526000600c553480156200001657600080fd5b506040516200436638038062004366833981016040819052620000399162000256565b6040805180820182526007815266185c98db185b9960ca1b60208083019182528351808501909452600384526241524360e81b9084015281519192916200008391600091620001b0565b50805162000099906001906020840190620001b0565b505050620000b6620000b06200015a60201b60201c565b6200015e565b60008211620001015760405162461bcd60e51b8152602060048201526012602482015271626c6f636b507269636520746f6f206c6f7760701b60448201526064015b60405180910390fd5b60008311620001485760405162461bcd60e51b81526020600482015260126024820152716d6178537570706c7920746f6f206c65737360701b6044820152606401620000f8565b600d92909255600c55608052620002c1565b3390565b600b80546001600160a01b038381166001600160a01b0319831681179093556040519116919082907f8be0079c531659141344cd1fd0a4f28419497f9722a3daafe3b4186f6b6457e090600090a35050565b828054620001be9062000284565b90600052602060002090601f016020900481019282620001e257600085556200022d565b82601f10620001fd57805160ff19168380011785556200022d565b828001600101855582156200022d579182015b828111156200022d57825182559160200191906001019062000210565b506200023b9291506200023f565b5090565b5b808211156200023b576000815560010162000240565b6000806000606084860312156200026b578283fd5b8351925060208401519150604084015190509250925092565b600181811c908216806200029957607f821691505b60208210811415620002bb57634e487b7160e01b600052602260045260246000fd5b50919050565b608051614082620002e4600039600081816103c40152610cd101526140826000f3fe608060405260043610620001b75760003560e01c8063715018a611620000f3578063b88d4fde1162000095578063e261f1e5116200006c578063e261f1e514620004ef578063e985e9c51462000529578063f2fde38b1462000576578063f76f8d78146200059b57600080fd5b8063b88d4fde146200048e578063c87b56dd14620004b3578063d85d3d2714620004d857600080fd5b806395d89b4111620000ca57806395d89b411462000406578063a22cb465146200041e578063a3f4df7e146200044357600080fd5b8063715018a614620003985780638559dff314620003b05780638da5cb5b14620003e657600080fd5b80632f745c59116200015d57806359b78681116200013457806359b7868114620003375780636352211e146200034e57806370a08231146200037357600080fd5b80632f745c5914620002c857806342842e0e14620002ed5780634f6ccce7146200031257600080fd5b8063095ea7b31162000192578063095ea7b3146200025b57806318160ddd146200028257806323b872dd14620002a357600080fd5b806301ffc9a714620001bc57806306fdde0314620001f6578063081812fc146200021d575b600080fd5b348015620001c957600080fd5b50620001e1620001db36600462002218565b620005e6565b60405190151581526020015b60405180910390f35b3480156200020357600080fd5b506200020e620005f9565b604051620001ed919062002359565b3480156200022a57600080fd5b50620002426200023c366004620022a1565b62000693565b6040516001600160a01b039091168152602001620001ed565b3480156200026857600080fd5b50620002806200027a366004620021ec565b6200072e565b005b3480156200028f57600080fd5b506008545b604051908152602001620001ed565b348015620002b057600080fd5b5062000280620002c2366004620020ec565b6200086b565b348015620002d557600080fd5b5062000294620002e7366004620021ec565b620008f8565b348015620002fa57600080fd5b50620002806200030c366004620020ec565b620009a4565b3480156200031f57600080fd5b506200029462000331366004620022a1565b620009c1565b3480156200034457600080fd5b5062000294606481565b3480156200035b57600080fd5b50620002426200036d366004620022a1565b62000a77565b3480156200038057600080fd5b50620002946200039236600462002098565b62000b04565b348015620003a557600080fd5b506200028062000ba0565b348015620003bd57600080fd5b50620002947f000000000000000000000000000000000000000000000000000000000000000081565b348015620003f357600080fd5b50600b546001600160a01b031662000242565b3480156200041357600080fd5b506200020e62000c0a565b3480156200042b57600080fd5b50620002806200043d366004620021ae565b62000c1b565b3480156200045057600080fd5b506200020e6040518060400160405280600781526020017f6172636c616e640000000000000000000000000000000000000000000000000081525081565b3480156200049b57600080fd5b5062000280620004ad3660046200212c565b62000c2c565b348015620004c057600080fd5b506200020e620004d2366004620022a1565b62000cc0565b62000294620004e936600462002256565b62000ccd565b348015620004fc57600080fd5b50620002426200050e366004620022a1565b600f602052600090815260409020546001600160a01b031681565b3480156200053657600080fd5b50620001e162000548366004620020b5565b6001600160a01b03918216600090815260056020908152604080832093909416825291909152205460ff1690565b3480156200058357600080fd5b50620002806200059536600462002098565b62000deb565b348015620005a857600080fd5b506200020e6040518060400160405280600381526020017f415243000000000000000000000000000000000000000000000000000000000081525081565b6000620005f38262000ed3565b92915050565b6060600080546200060a90620023e9565b80601f01602080910402602001604051908101604052809291908181526020018280546200063890620023e9565b8015620006895780601f106200065d5761010080835404028352916020019162000689565b820191906000526020600020905b8154815290600101906020018083116200066b57829003601f168201915b5050505050905090565b6000818152600260205260408120546001600160a01b0316620007125760405162461bcd60e51b815260206004820152602c60248201527f4552433732313a20617070726f76656420717565727920666f72206e6f6e657860448201526b34b9ba32b73a103a37b5b2b760a11b60648201526084015b60405180910390fd5b506000908152600460205260409020546001600160a01b031690565b60006200073b8262000a77565b9050806001600160a01b0316836001600160a01b03161415620007c75760405162461bcd60e51b815260206004820152602160248201527f4552433732313a20617070726f76616c20746f2063757272656e74206f776e6560448201527f7200000000000000000000000000000000000000000000000000000000000000606482015260840162000709565b336001600160a01b0382161480620007e65750620007e6813362000548565b6200085a5760405162461bcd60e51b815260206004820152603860248201527f4552433732313a20617070726f76652063616c6c6572206973206e6f74206f7760448201527f6e6572206e6f7220617070726f76656420666f7220616c6c0000000000000000606482015260840162000709565b62000866838362000f14565b505050565b62000877338262000f84565b620008eb5760405162461bcd60e51b815260206004820152603160248201527f4552433732313a207472616e736665722063616c6c6572206973206e6f74206f60448201527f776e6572206e6f7220617070726f766564000000000000000000000000000000606482015260840162000709565b6200086683838362001083565b6000620009058362000b04565b82106200097b5760405162461bcd60e51b815260206004820152602b60248201527f455243373231456e756d657261626c653a206f776e657220696e646578206f7560448201527f74206f6620626f756e6473000000000000000000000000000000000000000000606482015260840162000709565b506001600160a01b03919091166000908152600660209081526040808320938352929052205490565b620008668383836040518060200160405280600081525062000c2c565b6000620009cd60085490565b821062000a435760405162461bcd60e51b815260206004820152602c60248201527f455243373231456e756d657261626c653a20676c6f62616c20696e646578206f60448201527f7574206f6620626f756e64730000000000000000000000000000000000000000606482015260840162000709565b6008828154811062000a6557634e487b7160e01b600052603260045260246000fd5b90600052602060002001549050919050565b6000818152600260205260408120546001600160a01b031680620005f35760405162461bcd60e51b815260206004820152602960248201527f4552433732313a206f776e657220717565727920666f72206e6f6e657869737460448201527f656e7420746f6b656e0000000000000000000000000000000000000000000000606482015260840162000709565b60006001600160a01b03821662000b845760405162461bcd60e51b815260206004820152602a60248201527f4552433732313a2062616c616e636520717565727920666f7220746865207a6560448201527f726f206164647265737300000000000000000000000000000000000000000000606482015260840162000709565b506001600160a01b031660009081526003602052604090205490565b600b546001600160a01b0316331462000bfc5760405162461bcd60e51b815260206004820181905260248201527f4f776e61626c653a2063616c6c6572206973206e6f7420746865206f776e6572604482015260640162000709565b62000c08600062001269565b565b6060600180546200060a90620023e9565b62000c28338383620012bb565b5050565b62000c38338362000f84565b62000cac5760405162461bcd60e51b815260206004820152603160248201527f4552433732313a207472616e736665722063616c6c6572206973206e6f74206f60448201527f776e6572206e6f7220617070726f766564000000000000000000000000000000606482015260840162000709565b62000cba848484846200138c565b50505050565b6060620005f38262001410565b60007f0000000000000000000000000000000000000000000000000000000000000000341462000d405760405162461bcd60e51b815260206004820152601260248201527f496e737566666963656e7420616d6f756e740000000000000000000000000000604482015260640162000709565b62000d4f600e80546001019055565b600062000d5b600e5490565b905062000d693382620015ac565b62000d758184620015c8565b33606460405162000d869062001f4a565b6001600160a01b0390921682526020820152604001604051809103906000f08015801562000db8573d6000803e3d6000fd5b506000828152600f6020526040902080546001600160a01b0319166001600160a01b039290921691909117905592915050565b600b546001600160a01b0316331462000e475760405162461bcd60e51b815260206004820181905260248201527f4f776e61626c653a2063616c6c6572206973206e6f7420746865206f776e6572604482015260640162000709565b6001600160a01b03811662000ec55760405162461bcd60e51b815260206004820152602660248201527f4f776e61626c653a206e6577206f776e657220697320746865207a65726f206160448201527f6464726573730000000000000000000000000000000000000000000000000000606482015260840162000709565b62000ed08162001269565b50565b60006001600160e01b031982167f780e9d63000000000000000000000000000000000000000000000000000000001480620005f35750620005f38262001675565b600081815260046020526040902080546001600160a01b0319166001600160a01b038416908117909155819062000f4b8262000a77565b6001600160a01b03167f8c5be1e5ebec7d5bd14f71427d1e84f3dd0314c0f7b2291e5b200ac8c7c3b92560405160405180910390a45050565b6000818152600260205260408120546001600160a01b031662000fff5760405162461bcd60e51b815260206004820152602c60248201527f4552433732313a206f70657261746f7220717565727920666f72206e6f6e657860448201526b34b9ba32b73a103a37b5b2b760a11b606482015260840162000709565b60006200100c8362000a77565b9050806001600160a01b0316846001600160a01b031614806200104a5750836001600160a01b03166200103f8462000693565b6001600160a01b0316145b806200107b57506001600160a01b0380821660009081526005602090815260408083209388168352929052205460ff165b949350505050565b826001600160a01b0316620010988262000a77565b6001600160a01b031614620011165760405162461bcd60e51b815260206004820152602560248201527f4552433732313a207472616e736665722066726f6d20696e636f72726563742060448201527f6f776e6572000000000000000000000000000000000000000000000000000000606482015260840162000709565b6001600160a01b038216620011935760405162461bcd60e51b8152602060048201526024808201527f4552433732313a207472616e7366657220746f20746865207a65726f2061646460448201527f7265737300000000000000000000000000000000000000000000000000000000606482015260840162000709565b620011a083838362001713565b620011ad60008262000f14565b6001600160a01b0383166000908152600360205260408120805460019290620011d8908490620023a0565b90915550506001600160a01b0382166000908152600360205260408120805460019290620012089084906200236e565b909155505060008181526002602052604080822080546001600160a01b0319166001600160a01b0386811691821790925591518493918716917fddf252ad1be2c89b69c2b068fc378daa952ba7f163c4a11628f55a4df523b3ef91a4505050565b600b80546001600160a01b038381166001600160a01b0319831681179093556040519116919082907f8be0079c531659141344cd1fd0a4f28419497f9722a3daafe3b4186f6b6457e090600090a35050565b816001600160a01b0316836001600160a01b031614156200131f5760405162461bcd60e51b815260206004820152601960248201527f4552433732313a20617070726f766520746f2063616c6c657200000000000000604482015260640162000709565b6001600160a01b03838116600081815260056020908152604080832094871680845294825291829020805460ff191686151590811790915591519182527f17307eab39ab6107e8899845ad3d59bd9653f200f220920489ca2b5937696c31910160405180910390a3505050565b6200139984848462001083565b620013a78484848462001720565b62000cba5760405162461bcd60e51b815260206004820152603260248201527f4552433732313a207472616e7366657220746f206e6f6e20455243373231526560448201527131b2b4bb32b91034b6b83632b6b2b73a32b960711b606482015260840162000709565b6000818152600260205260409020546060906001600160a01b03166200149f5760405162461bcd60e51b815260206004820152603160248201527f45524337323155524953746f726167653a2055524920717565727920666f722060448201527f6e6f6e6578697374656e7420746f6b656e000000000000000000000000000000606482015260840162000709565b6000828152600a602052604081208054620014ba90620023e9565b80601f0160208091040260200160405190810160405280929190818152602001828054620014e890620023e9565b8015620015395780601f106200150d5761010080835404028352916020019162001539565b820191906000526020600020905b8154815290600101906020018083116200151b57829003601f168201915b5050505050905060006200155860408051602081019091526000815290565b90508051600014156200156c575092915050565b815115620015a157808260405160200162001589929190620022e8565b60405160208183030381529060405292505050919050565b6200107b8462001885565b62000c2882826040518060200160405280600081525062001984565b6000828152600260205260409020546001600160a01b0316620016545760405162461bcd60e51b815260206004820152602e60248201527f45524337323155524953746f726167653a2055524920736574206f66206e6f6e60448201527f6578697374656e7420746f6b656e000000000000000000000000000000000000606482015260840162000709565b6000828152600a602090815260409091208251620008669284019062001f58565b60006001600160e01b031982167f80ac58cd000000000000000000000000000000000000000000000000000000001480620016d957506001600160e01b031982167f5b5e139f00000000000000000000000000000000000000000000000000000000145b80620005f357507f01ffc9a7000000000000000000000000000000000000000000000000000000006001600160e01b0319831614620005f3565b6200086683838362001a08565b60006001600160a01b0384163b156200187a57604051630a85bd0160e11b81526001600160a01b0385169063150b7a0290620017679033908990889088906004016200231b565b602060405180830381600087803b1580156200178257600080fd5b505af1925050508015620017b5575060408051601f3d908101601f19168201909252620017b29181019062002237565b60015b6200185f573d808015620017e6576040519150601f19603f3d011682016040523d82523d6000602084013e620017eb565b606091505b508051620018575760405162461bcd60e51b815260206004820152603260248201527f4552433732313a207472616e7366657220746f206e6f6e20455243373231526560448201527131b2b4bb32b91034b6b83632b6b2b73a32b960711b606482015260840162000709565b805181602001fd5b6001600160e01b031916630a85bd0160e11b1490506200107b565b506001949350505050565b6000818152600260205260409020546060906001600160a01b0316620019145760405162461bcd60e51b815260206004820152602f60248201527f4552433732314d657461646174613a2055524920717565727920666f72206e6f60448201527f6e6578697374656e7420746f6b656e0000000000000000000000000000000000606482015260840162000709565b60006200192c60408051602081019091526000815290565b905060008151116200194e57604051806020016040528060008152506200197d565b806200195a8462001acc565b6040516020016200196d929190620022e8565b6040516020818303038152906040525b9392505050565b62001990838362001c2e565b6200199f600084848462001720565b620008665760405162461bcd60e51b815260206004820152603260248201527f4552433732313a207472616e7366657220746f206e6f6e20455243373231526560448201527131b2b4bb32b91034b6b83632b6b2b73a32b960711b606482015260840162000709565b6001600160a01b03831662001a665762001a6081600880546000838152600960205260408120829055600182018355919091527ff3f7a9fe364faab93b216da50a3214154f22a0a2b415b23a84c8169e8b636ee30155565b62001a8c565b816001600160a01b0316836001600160a01b03161462001a8c5762001a8c838262001d84565b6001600160a01b03821662001aa657620008668162001e26565b826001600160a01b0316826001600160a01b031614620008665762000866828262001f04565b60608162001b0d57505060408051808201909152600181527f3000000000000000000000000000000000000000000000000000000000000000602082015290565b8160005b811562001b3d578062001b248162002426565b915062001b359050600a8362002389565b915062001b11565b60008167ffffffffffffffff81111562001b6757634e487b7160e01b600052604160045260246000fd5b6040519080825280601f01601f19166020018201604052801562001b92576020820181803683370190505b5090505b84156200107b5762001baa600183620023a0565b915062001bb9600a8662002444565b62001bc69060306200236e565b60f81b81838151811062001bea57634e487b7160e01b600052603260045260246000fd5b60200101907effffffffffffffffffffffffffffffffffffffffffffffffffffffffffffff1916908160001a90535062001c26600a8662002389565b945062001b96565b6001600160a01b03821662001c865760405162461bcd60e51b815260206004820181905260248201527f4552433732313a206d696e7420746f20746865207a65726f2061646472657373604482015260640162000709565b6000818152600260205260409020546001600160a01b03161562001ced5760405162461bcd60e51b815260206004820152601c60248201527f4552433732313a20746f6b656e20616c7265616479206d696e74656400000000604482015260640162000709565b62001cfb6000838362001713565b6001600160a01b038216600090815260036020526040812080546001929062001d269084906200236e565b909155505060008181526002602052604080822080546001600160a01b0319166001600160a01b03861690811790915590518392907fddf252ad1be2c89b69c2b068fc378daa952ba7f163c4a11628f55a4df523b3ef908290a45050565b6000600162001d938462000b04565b62001d9f9190620023a0565b60008381526007602052604090205490915080821462001df3576001600160a01b03841660009081526006602090815260408083208584528252808320548484528184208190558352600790915290208190555b5060009182526007602090815260408084208490556001600160a01b039094168352600681528383209183525290812055565b60085460009062001e3a90600190620023a0565b6000838152600960205260408120546008805493945090928490811062001e7157634e487b7160e01b600052603260045260246000fd5b90600052602060002001549050806008838154811062001ea157634e487b7160e01b600052603260045260246000fd5b600091825260208083209091019290925582815260099091526040808220849055858252812055600880548062001ee857634e487b7160e01b600052603160045260246000fd5b6001900381819060005260206000200160009055905550505050565b600062001f118362000b04565b6001600160a01b039093166000908152600660209081526040808320868452825280832085905593825260079052919091209190915550565b611b9880620024b583390190565b82805462001f6690620023e9565b90600052602060002090601f01602090048101928262001f8a576000855562001fd5565b82601f1062001fa557805160ff191683800117855562001fd5565b8280016001018555821562001fd5579182015b8281111562001fd557825182559160200191906001019062001fb8565b5062001fe392915062001fe7565b5090565b5b8082111562001fe3576000815560010162001fe8565b600067ffffffffffffffff808411156200201c576200201c62002487565b604051601f8501601f19908116603f0116810190828211818310171562002047576200204762002487565b816040528093508581528686860111156200206157600080fd5b858560208301376000602087830101525050509392505050565b80356001600160a01b03811681146200209357600080fd5b919050565b600060208284031215620020aa578081fd5b6200197d826200207b565b60008060408385031215620020c8578081fd5b620020d3836200207b565b9150620020e3602084016200207b565b90509250929050565b60008060006060848603121562002101578081fd5b6200210c846200207b565b92506200211c602085016200207b565b9150604084013590509250925092565b6000806000806080858703121562002142578081fd5b6200214d856200207b565b93506200215d602086016200207b565b925060408501359150606085013567ffffffffffffffff81111562002180578182fd5b8501601f8101871362002191578182fd5b620021a28782356020840162001ffe565b91505092959194509250565b60008060408385031215620021c1578182fd5b620021cc836200207b565b915060208301358015158114620021e1578182fd5b809150509250929050565b60008060408385031215620021ff578182fd5b6200220a836200207b565b946020939093013593505050565b6000602082840312156200222a578081fd5b81356200197d816200249d565b60006020828403121562002249578081fd5b81516200197d816200249d565b60006020828403121562002268578081fd5b813567ffffffffffffffff8111156200227f578182fd5b8201601f8101841362002290578182fd5b6200107b8482356020840162001ffe565b600060208284031215620022b3578081fd5b5035919050565b60008151808452620022d4816020860160208601620023ba565b601f01601f19169290920160200192915050565b60008351620022fc818460208801620023ba565b83519083019062002312818360208801620023ba565b01949350505050565b60006001600160a01b038087168352808616602084015250836040830152608060608301526200234f6080830184620022ba565b9695505050505050565b6020815260006200197d6020830184620022ba565b600082198211156200238457620023846200245b565b500190565b6000826200239b576200239b62002471565b500490565b600082821015620023b557620023b56200245b565b500390565b60005b83811015620023d7578181015183820152602001620023bd565b8381111562000cba5750506000910152565b600181811c90821680620023fe57607f821691505b602082108114156200242057634e487b7160e01b600052602260045260246000fd5b50919050565b60006000198214156200243d576200243d6200245b565b5060010190565b60008262002456576200245662002471565b500690565b634e487b7160e01b600052601160045260246000fd5b634e487b7160e01b600052601260045260246000fd5b634e487b7160e01b600052604160045260246000fd5b6001600160e01b03198116811462000ed057600080fdfe608060405234801561001057600080fd5b50604051611b98380380611b9883398101604081905261002f91610058565b600080546001600160a01b0319166001600160a01b039390931692909217909155600155610090565b6000806040838503121561006a578182fd5b82516001600160a01b0381168114610080578283fd5b6020939093015192949293505050565b611af98061009f6000396000f3fe6080604052600436106100705760003560e01c8063526c89031161004e578063526c8903146101a25780636bc479dd146101c4578063a76e5f83146101e4578063ed4f0120146101fa57600080fd5b806314869e55146100755780631861b1fd146101545780634654bb0714610175575b600080fd5b34801561008157600080fd5b50610138610090366004611785565b600660208181526000928352604092839020805484516101008101865260018301546001600160a01b03908116825260028401549482019490945260038301549581019590955260048201546060860152600582015460808601529281015460a0850152600781015460c0850152600881015490911660e08401526009810154600a820154600b830154600c840154600d9094015494959460ff938416949293909116919087565b60405161014b97969594939291906119ab565b60405180910390f35b61016761016236600461179d565b610227565b60405190815260200161014b565b34801561018157600080fd5b50610167610190366004611785565b60036020526000908152604090205481565b3480156101ae57600080fd5b506101b76102ea565b60405161014b9190611852565b3480156101d057600080fd5b506101386101df366004611785565b61040c565b3480156101f057600080fd5b5061016760055481565b34801561020657600080fd5b5061021a61021536600461175e565b6104c4565b60405161014b919061193d565b60006005546000146102805760405162461bcd60e51b815260206004820152601960248201527f70726f706f73616c506f6f6c206973206e6f7420656d7074790000000000000060448201526064015b60405180910390fd5b6000604051806101000160405280336001600160a01b031681526020018a8152602001898152602001888152602001878152602001868152602001858152602001846001600160a01b0316815250905060006102dc82346108e7565b9a9950505050505050505050565b60606004805480602002602001604051908101604052809291908181526020016000905b828210156104035760008481526020908190206040805160e08082018352600e8702909301805482528251610100810184526001808301546001600160a01b03908116835260028401548389015260038401548387015260048401546060808501919091526005850154608080860191909152600686015460a080870191909152600787015460c080880191909152600888015490941699860199909952868a0194909452600985015460ff908116151597870197909752600a85015490860152600b840154909516151591840191909152600c82015494830194909452600d0154918101919091528352909201910161030e565b50505050905090565b6004818154811061041c57600080fd5b6000918252602091829020600e909102018054604080516101008101825260018401546001600160a01b0390811682526002850154958201959095526003840154918101919091526004830154606082015260058301546080820152600683015460a0820152600783015460c0820152600883015490931660e08401526009820154600a830154600b840154600c850154600d9095015493965060ff92831694919392169187565b6000806005541180156104eb57506005546000908152600660205260409020600b015460ff165b6105375760405162461bcd60e51b815260206004820152601560248201527f70726f706f73616c506f6f6c20697320656d70747900000000000000000000006044820152606401610277565b6000546001600160a01b031633148061056c57506005546000908152600660205260409020600101546001600160a01b031633145b6105b85760405162461bcd60e51b815260206004820152600b60248201527f6e6f7420616c6c6f7765640000000000000000000000000000000000000000006044820152606401610277565b6000546001600160a01b03163314156108b25781156108a25760058054600090815260066020819052604080832060099081018054600160ff1991821681179092558654865292852060048054808401825581885282547f8a35acfbc15ff81a39ae7d344fd709f28e8600b4aa8c65c6b64bfe7fe36bd19b600e90920291820155928201547f8a35acfbc15ff81a39ae7d344fd709f28e8600b4aa8c65c6b64bfe7fe36bd19c840180546001600160a01b0392831673ffffffffffffffffffffffffffffffffffffffff199182161790915560028401547f8a35acfbc15ff81a39ae7d344fd709f28e8600b4aa8c65c6b64bfe7fe36bd19d86015560038401547f8a35acfbc15ff81a39ae7d344fd709f28e8600b4aa8c65c6b64bfe7fe36bd19e860155918301547f8a35acfbc15ff81a39ae7d344fd709f28e8600b4aa8c65c6b64bfe7fe36bd19f850155828901547f8a35acfbc15ff81a39ae7d344fd709f28e8600b4aa8c65c6b64bfe7fe36bd1a0850155958201547f8a35acfbc15ff81a39ae7d344fd709f28e8600b4aa8c65c6b64bfe7fe36bd1a184015560078201547f8a35acfbc15ff81a39ae7d344fd709f28e8600b4aa8c65c6b64bfe7fe36bd1a284015560088201547f8a35acfbc15ff81a39ae7d344fd709f28e8600b4aa8c65c6b64bfe7fe36bd1a38401805491909716911617909455908301547f8a35acfbc15ff81a39ae7d344fd709f28e8600b4aa8c65c6b64bfe7fe36bd1a482018054841660ff9283161515179055600a8401547f8a35acfbc15ff81a39ae7d344fd709f28e8600b4aa8c65c6b64bfe7fe36bd1a5830155600b8401547f8a35acfbc15ff81a39ae7d344fd709f28e8600b4aa8c65c6b64bfe7fe36bd1a6830180549094169116151517909155600c8201547f8a35acfbc15ff81a39ae7d344fd709f28e8600b4aa8c65c6b64bfe7fe36bd1a7820155600d909101547f8a35acfbc15ff81a39ae7d344fd709f28e8600b4aa8c65c6b64bfe7fe36bd1a8909101559055506001919050565b6108aa610c37565b506000919050565b6005546000908152600660205260409020600101546001600160a01b03163314156108df576108aa610c37565b506002919050565b60008060006108fc6003866006600154610d22565b9150915061093f6040518060400160405280600881526020017f636f6c6c6964657300000000000000000000000000000000000000000000000081525083610e04565b61097e6040518060400160405280600581526020017f6f776e657200000000000000000000000000000000000000000000000000000081525082610e77565b81156109cc5760405162461bcd60e51b815260206004820152601b60248201527f70726f706f73616c20636f6c6c6973696f6e20646574656374656400000000006044820152606401610277565b8015610a2e5760006109dd82610eea565b905080610a2c5760405162461bcd60e51b815260206004820152601f60248201527f6661696c656420746f2072656d6f7665206578697374696e67206f776e6572006044820152606401610277565b505b6000610a3c866001546114f1565b9050610a4c600280546001019055565b6000610a5760025490565b9050610a986040518060400160405280600a81526020017f70726f706f73616c49640000000000000000000000000000000000000000000081525082610e77565b60005b8251811015610af6578160036000858481518110610ac957634e487b7160e01b600052603260045260246000fd5b60200260200101518152602001908152602001600020819055508080610aee90611a92565b915050610a9b565b506040518060e00160405280828152602001888152602001600015158152602001878152602001600115158152602001610b2f896116d0565b81526004805460209283015260008481526006808452604091829020855181558585015180516001830180546001600160a01b0392831673ffffffffffffffffffffffffffffffffffffffff199182161790915596820151600284015581850151600384015560608083015196840196909655608080830151600585015560a0808401519585019590955560c080840151600786015560e0909301516008850180549190931698169790971790559286015160098201805491151560ff1992831617905593860151600a82015593850151600b85018054911515919094161790925590830151600c83015590910151600d90910155610c2d816116e8565b9695505050505050565b6005805460009081526006602081905260408083208381556001808201805473ffffffffffffffffffffffffffffffffffffffff199081169091556002830186905560038301869055600483018690558287018690559382018590556007820185905560088201805490941690935560098101805460ff19908116909155600a808301869055600b83018054909216909155600c8201859055600d9091018490558454948490558484528184209283015492015490516001600160a01b03909216926108fc8215029290818181858888f19350505050158015610d1e573d6000803e3d6000fd5b5050565b600080600080600080610d3589886114f1565b905060005b8151811015610df45760008b6000848481518110610d6857634e487b7160e01b600052603260045260246000fd5b60200260200101518152602001908152602001600020541115610de257600194508a6000838381518110610dac57634e487b7160e01b600052603260045260246000fd5b60200260200101518152602001908152602001600020549250886000848152602001908152602001600020600c01549350610df4565b80610dec81611a92565b915050610d3a565b5092999098509650505050505050565b610d1e8282604051602401610e1a929190611965565b60408051601f198184030181529190526020810180517bffffffffffffffffffffffffffffffffffffffffffffffffffffffff167fc3b556350000000000000000000000000000000000000000000000000000000017905261173d565b610d1e8282604051602401610e8d929190611989565b60408051601f198184030181529190526020810180517bffffffffffffffffffffffffffffffffffffffffffffffffffffffff167f9710a9d00000000000000000000000000000000000000000000000000000000017905261173d565b6000818152600660205260408120600b015460ff16610f4b5760405162461bcd60e51b815260206004820152601360248201527f72656e7420646f6573206e6f74206578697374000000000000000000000000006044820152606401610277565b6000828152600660208181526040808420815160e08082018452825482528351610100810185526001808501546001600160a01b039081168352600286015483890152600386015483880152600486015460608085019190915260058701546080808601919091529987015460a080860191909152600788015460c080870191909152600889015490931695850195909552978501839052600986015460ff908116151597860197909752600a86015497850197909752600b850154909516151596830196909652600c83015490820152600d909101549281019290925254909291611036916114f1565b905060005b81518110156110975760006003600084848151811061106a57634e487b7160e01b600052603260045260246000fd5b6020026020010151815260200190815260200160002081905550808061108f90611a92565b91505061103b565b50600060066000600460016004805490506110b29190611a7b565b815481106110d057634e487b7160e01b600052603260045260246000fd5b60009182526020808320600e9092029091015483528281019390935260409182019020815160e080820184528254825283516101008101855260018401546001600160a01b03908116825260028501548288015260038501548287015260048501546060808401919091526005860154608080850191909152600687015460a080860191909152600788015460c08087019190915260088901549094169585019590955297850192909252600985015460ff908116151596850196909652600a85015491840191909152600b8401549094161515948201859052600c83015490820152600d9091015491810191909152915061120e5760405162461bcd60e51b815260206004820152601f60248201527f6661696c656420746f20676574206c6173742072656e746564417373657473006044820152606401610277565b8260c001518160c00181815250508060048460c001518154811061124257634e487b7160e01b600052603260045260246000fd5b60009182526020918290208351600e909202019081558282015180516001830180546001600160a01b0392831673ffffffffffffffffffffffffffffffffffffffff19918216179091559382015160028401556040808301516003850155606080840151600480870191909155608080860151600588015560a080870151600689015560c08088015160078a015560e090970151600889018054919097169916989098179094559187015160098601805491151560ff1992831617905590870151600a86015591860151600b85018054911515919093161790915592840151600c83015590920151600d9092019190915580548061135057634e487b7160e01b600052603160045260246000fd5b60019003818190600052602060002090600e020160008082016000905560018201600080820160006101000a8154906001600160a01b0302191690556001820160009055600282016000905560038201600090556004820160009055600582016000905560068201600090556007820160006101000a8154906001600160a01b03021916905550506009820160006101000a81549060ff0219169055600a820160009055600b820160006101000a81549060ff0219169055600c820160009055600d820160009055505090556006600086815260200190815260200160002060008082016000905560018201600080820160006101000a8154906001600160a01b0302191690556001820160009055600282016000905560038201600090556004820160009055600582016000905560068201600090556007820160006101000a8154906001600160a01b03021916905550506009820160006101000a81549060ff0219169055600a820160009055600b820160006101000a81549060ff0219169055600c820160009055600d820160009055505060019350505050919050565b60606000836060015184608001516115099190611a5c565b67ffffffffffffffff81111561152f57634e487b7160e01b600052604160045260246000fd5b604051908082528060200260200182016040528015611558578160200160208202803683370190505b509050600080856040015160001461158b57846001876040015161157c9190611a7b565b6115869190611a5c565b611596565b611596856001611a5c565b6020870151909150156115b55760208601516115b29082611a44565b90505b6115f46040518060400160405280600781526020017f706f696e7465720000000000000000000000000000000000000000000000000081525082610e77565b60005b86608001518110156116c55760005b87606001518110156116a6576116516040518060400160405280600a81526020017f617272506f696e7465720000000000000000000000000000000000000000000081525085610e77565b61165b8184611a44565b85858151811061167b57634e487b7160e01b600052603260045260246000fd5b60209081029190910101528361169081611a92565b945050808061169e90611a92565b915050611606565b506116b18683611a44565b9150806116bd81611a92565b9150506115f7565b509195945050505050565b60008160a00151426116e29190611a44565b92915050565b600554156117385760405162461bcd60e51b815260206004820152601960248201527f70726f706f73616c506f6f6c206973206e6f7420656d707479000000000000006044820152606401610277565b600555565b80516a636f6e736f6c652e6c6f67602083016000808483855afa5050505050565b60006020828403121561176f578081fd5b8135801515811461177e578182fd5b9392505050565b600060208284031215611796578081fd5b5035919050565b600080600080600080600060e0888a0312156117b7578283fd5b873596506020880135955060408801359450606088013593506080880135925060a0880135915060c08801356001600160a01b03811681146117f7578182fd5b8091505092959891949750929550565b60008151808452815b8181101561182c57602081850181015186830182015201611810565b8181111561183d5782602083870101525b50601f01601f19169290920160200192915050565b602080825282518282018190526000919060409081850190868401855b8281101561193057815180518552868101516118e3888701826001600160a01b038082511683526020820151602084015260408201516040840152606082015160608401526080820151608084015260a082015160a084015260c082015160c08401528060e08301511660e0840152505050565b5080860151151561012086015260608101516101408601526080810151151561016086015260a081015161018086015260c001516101a08501526101c0909301929085019060010161186f565b5091979650505050505050565b602081016003831061195f57634e487b7160e01b600052602160045260246000fd5b91905290565b6040815260006119786040830185611807565b905082151560208301529392505050565b60408152600061199c6040830185611807565b90508260208301529392505050565b8781526101c08101611a1660208301896001600160a01b038082511683526020820151602084015260408201516040840152606082015160608401526080820151608084015260a082015160a084015260c082015160c08401528060e08301511660e0840152505050565b9515156101208201526101408101949094529115156101608401526101808301526101a09091015292915050565b60008219821115611a5757611a57611aad565b500190565b6000816000190483118215151615611a7657611a76611aad565b500290565b600082821015611a8d57611a8d611aad565b500390565b6000600019821415611aa657611aa6611aad565b5060010190565b634e487b7160e01b600052601160045260246000fdfea2646970667358221220ee495f69e77829b78aacc1fadf0a9358eb53065abe5cb3ffed7ffad5c4d1b1b864736f6c63430008040033a2646970667358221220fddaa45edad857ed437462144866611867aa150c865333b3f4ba60f68b23c12164736f6c63430008040033",
  "linkReferences": {},
  "deployedLinkReferences": {}
}