{
  "_format": "hh-sol-artifact-1",
  "contractName": "Land",
  "sourceName": "contracts/rentedLands.sol",
  "abi": [
    {
      "inputs": [
        {
          "internalType": "address",
          "name": "owner",
          "type": "address"
        },
        {
          "internalType": "uint256",
          "name": "height",
          "type": "uint256"
        }
      ],
      "stateMutability": "nonpayable",
      "type": "constructor"
    },
    {
      "inputs": [
        {
          "internalType": "uint256",
          "name": "",
          "type": "uint256"
        }
      ],
      "name": "_rents",
      "outputs": [
        {
          "internalType": "uint256",
          "name": "proposalId",
          "type": "uint256"
        },
        {
          "components": [
            {
              "internalType": "address",
              "name": "proposer",
              "type": "address"
            },
            {
              "internalType": "uint256",
              "name": "startTileX",
              "type": "uint256"
            },
            {
              "internalType": "uint256",
              "name": "startTileY",
              "type": "uint256"
            },
            {
              "internalType": "uint256",
              "name": "width",
              "type": "uint256"
            },
            {
              "internalType": "uint256",
              "name": "height",
              "type": "uint256"
            },
            {
              "internalType": "uint256",
              "name": "duration",
              "type": "uint256"
            },
            {
              "internalType": "uint256",
              "name": "tokenId",
              "type": "uint256"
            },
            {
              "internalType": "address",
              "name": "handlerAddress",
              "type": "address"
            }
          ],
          "internalType": "struct Proposals.RentLandProposal",
          "name": "proposal",
          "type": "tuple"
        },
        {
          "internalType": "bool",
          "name": "approved",
          "type": "bool"
        },
        {
          "internalType": "uint256",
          "name": "amount",
          "type": "uint256"
        },
        {
          "internalType": "bool",
          "name": "isValue",
          "type": "bool"
        },
        {
          "internalType": "uint256",
          "name": "expireAt",
          "type": "uint256"
        },
        {
          "internalType": "uint256",
          "name": "position",
          "type": "uint256"
        }
      ],
      "stateMutability": "view",
      "type": "function"
    },
    {
      "inputs": [
        {
          "internalType": "uint256",
          "name": "",
          "type": "uint256"
        }
      ],
      "name": "_tileOwners",
      "outputs": [
        {
          "internalType": "uint256",
          "name": "",
          "type": "uint256"
        }
      ],
      "stateMutability": "view",
      "type": "function"
    },
    {
      "inputs": [],
      "name": "getRentedLands",
      "outputs": [
        {
          "components": [
            {
              "internalType": "uint256",
              "name": "proposalId",
              "type": "uint256"
            },
            {
              "components": [
                {
                  "internalType": "address",
                  "name": "proposer",
                  "type": "address"
                },
                {
                  "internalType": "uint256",
                  "name": "startTileX",
                  "type": "uint256"
                },
                {
                  "internalType": "uint256",
                  "name": "startTileY",
                  "type": "uint256"
                },
                {
                  "internalType": "uint256",
                  "name": "width",
                  "type": "uint256"
                },
                {
                  "internalType": "uint256",
                  "name": "height",
                  "type": "uint256"
                },
                {
                  "internalType": "uint256",
                  "name": "duration",
                  "type": "uint256"
                },
                {
                  "internalType": "uint256",
                  "name": "tokenId",
                  "type": "uint256"
                },
                {
                  "internalType": "address",
                  "name": "handlerAddress",
                  "type": "address"
                }
              ],
              "internalType": "struct Proposals.RentLandProposal",
              "name": "proposal",
              "type": "tuple"
            },
            {
              "internalType": "bool",
              "name": "approved",
              "type": "bool"
            },
            {
              "internalType": "uint256",
              "name": "amount",
              "type": "uint256"
            },
            {
              "internalType": "bool",
              "name": "isValue",
              "type": "bool"
            },
            {
              "internalType": "uint256",
              "name": "expireAt",
              "type": "uint256"
            },
            {
              "internalType": "uint256",
              "name": "position",
              "type": "uint256"
            }
          ],
          "internalType": "struct LandHelpers.RentedLands[]",
          "name": "",
          "type": "tuple[]"
        }
      ],
      "stateMutability": "view",
      "type": "function"
    },
    {
      "inputs": [
        {
          "internalType": "uint256",
          "name": "startTileX",
          "type": "uint256"
        },
        {
          "internalType": "uint256",
          "name": "startTileY",
          "type": "uint256"
        },
        {
          "internalType": "uint256",
          "name": "width",
          "type": "uint256"
        },
        {
          "internalType": "uint256",
          "name": "height",
          "type": "uint256"
        },
        {
          "internalType": "uint256",
          "name": "duration",
          "type": "uint256"
        },
        {
          "internalType": "uint256",
          "name": "tokenId",
          "type": "uint256"
        },
        {
          "internalType": "address",
          "name": "handlerAddress",
          "type": "address"
        }
      ],
      "name": "newProposal",
      "outputs": [
        {
          "internalType": "uint256",
          "name": "",
          "type": "uint256"
        }
      ],
      "stateMutability": "payable",
      "type": "function"
    },
    {
      "inputs": [],
      "name": "pendingProposal",
      "outputs": [
        {
          "internalType": "uint256",
          "name": "",
          "type": "uint256"
        }
      ],
      "stateMutability": "view",
      "type": "function"
    },
    {
      "inputs": [
        {
          "internalType": "uint256",
          "name": "",
          "type": "uint256"
        }
      ],
      "name": "rentedAssets",
      "outputs": [
        {
          "internalType": "uint256",
          "name": "proposalId",
          "type": "uint256"
        },
        {
          "components": [
            {
              "internalType": "address",
              "name": "proposer",
              "type": "address"
            },
            {
              "internalType": "uint256",
              "name": "startTileX",
              "type": "uint256"
            },
            {
              "internalType": "uint256",
              "name": "startTileY",
              "type": "uint256"
            },
            {
              "internalType": "uint256",
              "name": "width",
              "type": "uint256"
            },
            {
              "internalType": "uint256",
              "name": "height",
              "type": "uint256"
            },
            {
              "internalType": "uint256",
              "name": "duration",
              "type": "uint256"
            },
            {
              "internalType": "uint256",
              "name": "tokenId",
              "type": "uint256"
            },
            {
              "internalType": "address",
              "name": "handlerAddress",
              "type": "address"
            }
          ],
          "internalType": "struct Proposals.RentLandProposal",
          "name": "proposal",
          "type": "tuple"
        },
        {
          "internalType": "bool",
          "name": "approved",
          "type": "bool"
        },
        {
          "internalType": "uint256",
          "name": "amount",
          "type": "uint256"
        },
        {
          "internalType": "bool",
          "name": "isValue",
          "type": "bool"
        },
        {
          "internalType": "uint256",
          "name": "expireAt",
          "type": "uint256"
        },
        {
          "internalType": "uint256",
          "name": "position",
          "type": "uint256"
        }
      ],
      "stateMutability": "view",
      "type": "function"
    },
    {
      "inputs": [
        {
          "internalType": "bool",
          "name": "approve",
          "type": "bool"
        }
      ],
      "name": "updateProposalStatus",
      "outputs": [
        {
          "internalType": "enum Land.UpdateStatus",
          "name": "",
          "type": "uint8"
        }
      ],
      "stateMutability": "nonpayable",
      "type": "function"
    }
  ],
  "bytecode": "0x608060405234801561001057600080fd5b50604051611b98380380611b9883398101604081905261002f91610058565b600080546001600160a01b0319166001600160a01b039390931692909217909155600155610090565b6000806040838503121561006a578182fd5b82516001600160a01b0381168114610080578283fd5b6020939093015192949293505050565b611af98061009f6000396000f3fe6080604052600436106100705760003560e01c8063526c89031161004e578063526c8903146101a25780636bc479dd146101c4578063a76e5f83146101e4578063ed4f0120146101fa57600080fd5b806314869e55146100755780631861b1fd146101545780634654bb0714610175575b600080fd5b34801561008157600080fd5b50610138610090366004611785565b600660208181526000928352604092839020805484516101008101865260018301546001600160a01b03908116825260028401549482019490945260038301549581019590955260048201546060860152600582015460808601529281015460a0850152600781015460c0850152600881015490911660e08401526009810154600a820154600b830154600c840154600d9094015494959460ff938416949293909116919087565b60405161014b97969594939291906119ab565b60405180910390f35b61016761016236600461179d565b610227565b60405190815260200161014b565b34801561018157600080fd5b50610167610190366004611785565b60036020526000908152604090205481565b3480156101ae57600080fd5b506101b76102ea565b60405161014b9190611852565b3480156101d057600080fd5b506101386101df366004611785565b61040c565b3480156101f057600080fd5b5061016760055481565b34801561020657600080fd5b5061021a61021536600461175e565b6104c4565b60405161014b919061193d565b60006005546000146102805760405162461bcd60e51b815260206004820152601960248201527f70726f706f73616c506f6f6c206973206e6f7420656d7074790000000000000060448201526064015b60405180910390fd5b6000604051806101000160405280336001600160a01b031681526020018a8152602001898152602001888152602001878152602001868152602001858152602001846001600160a01b0316815250905060006102dc82346108e7565b9a9950505050505050505050565b60606004805480602002602001604051908101604052809291908181526020016000905b828210156104035760008481526020908190206040805160e08082018352600e8702909301805482528251610100810184526001808301546001600160a01b03908116835260028401548389015260038401548387015260048401546060808501919091526005850154608080860191909152600686015460a080870191909152600787015460c080880191909152600888015490941699860199909952868a0194909452600985015460ff908116151597870197909752600a85015490860152600b840154909516151591840191909152600c82015494830194909452600d0154918101919091528352909201910161030e565b50505050905090565b6004818154811061041c57600080fd5b6000918252602091829020600e909102018054604080516101008101825260018401546001600160a01b0390811682526002850154958201959095526003840154918101919091526004830154606082015260058301546080820152600683015460a0820152600783015460c0820152600883015490931660e08401526009820154600a830154600b840154600c850154600d9095015493965060ff92831694919392169187565b6000806005541180156104eb57506005546000908152600660205260409020600b015460ff165b6105375760405162461bcd60e51b815260206004820152601560248201527f70726f706f73616c506f6f6c20697320656d70747900000000000000000000006044820152606401610277565b6000546001600160a01b031633148061056c57506005546000908152600660205260409020600101546001600160a01b031633145b6105b85760405162461bcd60e51b815260206004820152600b60248201527f6e6f7420616c6c6f7765640000000000000000000000000000000000000000006044820152606401610277565b6000546001600160a01b03163314156108b25781156108a25760058054600090815260066020819052604080832060099081018054600160ff1991821681179092558654865292852060048054808401825581885282547f8a35acfbc15ff81a39ae7d344fd709f28e8600b4aa8c65c6b64bfe7fe36bd19b600e90920291820155928201547f8a35acfbc15ff81a39ae7d344fd709f28e8600b4aa8c65c6b64bfe7fe36bd19c840180546001600160a01b0392831673ffffffffffffffffffffffffffffffffffffffff199182161790915560028401547f8a35acfbc15ff81a39ae7d344fd709f28e8600b4aa8c65c6b64bfe7fe36bd19d86015560038401547f8a35acfbc15ff81a39ae7d344fd709f28e8600b4aa8c65c6b64bfe7fe36bd19e860155918301547f8a35acfbc15ff81a39ae7d344fd709f28e8600b4aa8c65c6b64bfe7fe36bd19f850155828901547f8a35acfbc15ff81a39ae7d344fd709f28e8600b4aa8c65c6b64bfe7fe36bd1a0850155958201547f8a35acfbc15ff81a39ae7d344fd709f28e8600b4aa8c65c6b64bfe7fe36bd1a184015560078201547f8a35acfbc15ff81a39ae7d344fd709f28e8600b4aa8c65c6b64bfe7fe36bd1a284015560088201547f8a35acfbc15ff81a39ae7d344fd709f28e8600b4aa8c65c6b64bfe7fe36bd1a38401805491909716911617909455908301547f8a35acfbc15ff81a39ae7d344fd709f28e8600b4aa8c65c6b64bfe7fe36bd1a482018054841660ff9283161515179055600a8401547f8a35acfbc15ff81a39ae7d344fd709f28e8600b4aa8c65c6b64bfe7fe36bd1a5830155600b8401547f8a35acfbc15ff81a39ae7d344fd709f28e8600b4aa8c65c6b64bfe7fe36bd1a6830180549094169116151517909155600c8201547f8a35acfbc15ff81a39ae7d344fd709f28e8600b4aa8c65c6b64bfe7fe36bd1a7820155600d909101547f8a35acfbc15ff81a39ae7d344fd709f28e8600b4aa8c65c6b64bfe7fe36bd1a8909101559055506001919050565b6108aa610c37565b506000919050565b6005546000908152600660205260409020600101546001600160a01b03163314156108df576108aa610c37565b506002919050565b60008060006108fc6003866006600154610d22565b9150915061093f6040518060400160405280600881526020017f636f6c6c6964657300000000000000000000000000000000000000000000000081525083610e04565b61097e6040518060400160405280600581526020017f6f776e657200000000000000000000000000000000000000000000000000000081525082610e77565b81156109cc5760405162461bcd60e51b815260206004820152601b60248201527f70726f706f73616c20636f6c6c6973696f6e20646574656374656400000000006044820152606401610277565b8015610a2e5760006109dd82610eea565b905080610a2c5760405162461bcd60e51b815260206004820152601f60248201527f6661696c656420746f2072656d6f7665206578697374696e67206f776e6572006044820152606401610277565b505b6000610a3c866001546114f1565b9050610a4c600280546001019055565b6000610a5760025490565b9050610a986040518060400160405280600a81526020017f70726f706f73616c49640000000000000000000000000000000000000000000081525082610e77565b60005b8251811015610af6578160036000858481518110610ac957634e487b7160e01b600052603260045260246000fd5b60200260200101518152602001908152602001600020819055508080610aee90611a92565b915050610a9b565b506040518060e00160405280828152602001888152602001600015158152602001878152602001600115158152602001610b2f896116d0565b81526004805460209283015260008481526006808452604091829020855181558585015180516001830180546001600160a01b0392831673ffffffffffffffffffffffffffffffffffffffff199182161790915596820151600284015581850151600384015560608083015196840196909655608080830151600585015560a0808401519585019590955560c080840151600786015560e0909301516008850180549190931698169790971790559286015160098201805491151560ff1992831617905593860151600a82015593850151600b85018054911515919094161790925590830151600c83015590910151600d90910155610c2d816116e8565b9695505050505050565b6005805460009081526006602081905260408083208381556001808201805473ffffffffffffffffffffffffffffffffffffffff199081169091556002830186905560038301869055600483018690558287018690559382018590556007820185905560088201805490941690935560098101805460ff19908116909155600a808301869055600b83018054909216909155600c8201859055600d9091018490558454948490558484528184209283015492015490516001600160a01b03909216926108fc8215029290818181858888f19350505050158015610d1e573d6000803e3d6000fd5b5050565b600080600080600080610d3589886114f1565b905060005b8151811015610df45760008b6000848481518110610d6857634e487b7160e01b600052603260045260246000fd5b60200260200101518152602001908152602001600020541115610de257600194508a6000838381518110610dac57634e487b7160e01b600052603260045260246000fd5b60200260200101518152602001908152602001600020549250886000848152602001908152602001600020600c01549350610df4565b80610dec81611a92565b915050610d3a565b5092999098509650505050505050565b610d1e8282604051602401610e1a929190611965565b60408051601f198184030181529190526020810180517bffffffffffffffffffffffffffffffffffffffffffffffffffffffff167fc3b556350000000000000000000000000000000000000000000000000000000017905261173d565b610d1e8282604051602401610e8d929190611989565b60408051601f198184030181529190526020810180517bffffffffffffffffffffffffffffffffffffffffffffffffffffffff167f9710a9d00000000000000000000000000000000000000000000000000000000017905261173d565b6000818152600660205260408120600b015460ff16610f4b5760405162461bcd60e51b815260206004820152601360248201527f72656e7420646f6573206e6f74206578697374000000000000000000000000006044820152606401610277565b6000828152600660208181526040808420815160e08082018452825482528351610100810185526001808501546001600160a01b039081168352600286015483890152600386015483880152600486015460608085019190915260058701546080808601919091529987015460a080860191909152600788015460c080870191909152600889015490931695850195909552978501839052600986015460ff908116151597860197909752600a86015497850197909752600b850154909516151596830196909652600c83015490820152600d909101549281019290925254909291611036916114f1565b905060005b81518110156110975760006003600084848151811061106a57634e487b7160e01b600052603260045260246000fd5b6020026020010151815260200190815260200160002081905550808061108f90611a92565b91505061103b565b50600060066000600460016004805490506110b29190611a7b565b815481106110d057634e487b7160e01b600052603260045260246000fd5b60009182526020808320600e9092029091015483528281019390935260409182019020815160e080820184528254825283516101008101855260018401546001600160a01b03908116825260028501548288015260038501548287015260048501546060808401919091526005860154608080850191909152600687015460a080860191909152600788015460c08087019190915260088901549094169585019590955297850192909252600985015460ff908116151596850196909652600a85015491840191909152600b8401549094161515948201859052600c83015490820152600d9091015491810191909152915061120e5760405162461bcd60e51b815260206004820152601f60248201527f6661696c656420746f20676574206c6173742072656e746564417373657473006044820152606401610277565b8260c001518160c00181815250508060048460c001518154811061124257634e487b7160e01b600052603260045260246000fd5b60009182526020918290208351600e909202019081558282015180516001830180546001600160a01b0392831673ffffffffffffffffffffffffffffffffffffffff19918216179091559382015160028401556040808301516003850155606080840151600480870191909155608080860151600588015560a080870151600689015560c08088015160078a015560e090970151600889018054919097169916989098179094559187015160098601805491151560ff1992831617905590870151600a86015591860151600b85018054911515919093161790915592840151600c83015590920151600d9092019190915580548061135057634e487b7160e01b600052603160045260246000fd5b60019003818190600052602060002090600e020160008082016000905560018201600080820160006101000a8154906001600160a01b0302191690556001820160009055600282016000905560038201600090556004820160009055600582016000905560068201600090556007820160006101000a8154906001600160a01b03021916905550506009820160006101000a81549060ff0219169055600a820160009055600b820160006101000a81549060ff0219169055600c820160009055600d820160009055505090556006600086815260200190815260200160002060008082016000905560018201600080820160006101000a8154906001600160a01b0302191690556001820160009055600282016000905560038201600090556004820160009055600582016000905560068201600090556007820160006101000a8154906001600160a01b03021916905550506009820160006101000a81549060ff0219169055600a820160009055600b820160006101000a81549060ff0219169055600c820160009055600d820160009055505060019350505050919050565b60606000836060015184608001516115099190611a5c565b67ffffffffffffffff81111561152f57634e487b7160e01b600052604160045260246000fd5b604051908082528060200260200182016040528015611558578160200160208202803683370190505b509050600080856040015160001461158b57846001876040015161157c9190611a7b565b6115869190611a5c565b611596565b611596856001611a5c565b6020870151909150156115b55760208601516115b29082611a44565b90505b6115f46040518060400160405280600781526020017f706f696e7465720000000000000000000000000000000000000000000000000081525082610e77565b60005b86608001518110156116c55760005b87606001518110156116a6576116516040518060400160405280600a81526020017f617272506f696e7465720000000000000000000000000000000000000000000081525085610e77565b61165b8184611a44565b85858151811061167b57634e487b7160e01b600052603260045260246000fd5b60209081029190910101528361169081611a92565b945050808061169e90611a92565b915050611606565b506116b18683611a44565b9150806116bd81611a92565b9150506115f7565b509195945050505050565b60008160a00151426116e29190611a44565b92915050565b600554156117385760405162461bcd60e51b815260206004820152601960248201527f70726f706f73616c506f6f6c206973206e6f7420656d707479000000000000006044820152606401610277565b600555565b80516a636f6e736f6c652e6c6f67602083016000808483855afa5050505050565b60006020828403121561176f578081fd5b8135801515811461177e578182fd5b9392505050565b600060208284031215611796578081fd5b5035919050565b600080600080600080600060e0888a0312156117b7578283fd5b873596506020880135955060408801359450606088013593506080880135925060a0880135915060c08801356001600160a01b03811681146117f7578182fd5b8091505092959891949750929550565b60008151808452815b8181101561182c57602081850181015186830182015201611810565b8181111561183d5782602083870101525b50601f01601f19169290920160200192915050565b602080825282518282018190526000919060409081850190868401855b8281101561193057815180518552868101516118e3888701826001600160a01b038082511683526020820151602084015260408201516040840152606082015160608401526080820151608084015260a082015160a084015260c082015160c08401528060e08301511660e0840152505050565b5080860151151561012086015260608101516101408601526080810151151561016086015260a081015161018086015260c001516101a08501526101c0909301929085019060010161186f565b5091979650505050505050565b602081016003831061195f57634e487b7160e01b600052602160045260246000fd5b91905290565b6040815260006119786040830185611807565b905082151560208301529392505050565b60408152600061199c6040830185611807565b90508260208301529392505050565b8781526101c08101611a1660208301896001600160a01b038082511683526020820151602084015260408201516040840152606082015160608401526080820151608084015260a082015160a084015260c082015160c08401528060e08301511660e0840152505050565b9515156101208201526101408101949094529115156101608401526101808301526101a09091015292915050565b60008219821115611a5757611a57611aad565b500190565b6000816000190483118215151615611a7657611a76611aad565b500290565b600082821015611a8d57611a8d611aad565b500390565b6000600019821415611aa657611aa6611aad565b5060010190565b634e487b7160e01b600052601160045260246000fdfea2646970667358221220ee495f69e77829b78aacc1fadf0a9358eb53065abe5cb3ffed7ffad5c4d1b1b864736f6c63430008040033",
  "linkReferences": {},
  "deployedLinkReferences": {}
}